{
  "_format": "hh-sol-artifact-1",
  "contractName": "AuricSeller",
  "sourceName": "contracts/AuricSeller.sol",
  "abi": [
    {
      "inputs": [
        {
          "internalType": "address",
          "name": "tokenAddress",
          "type": "address"
        }
      ],
      "stateMutability": "nonpayable",
      "type": "constructor"
    },
    {
      "anonymous": false,
      "inputs": [
        {
          "indexed": false,
          "internalType": "address",
          "name": "buyer",
          "type": "address"
        },
        {
          "indexed": false,
          "internalType": "uint256",
          "name": "amountOfETH",
          "type": "uint256"
        },
        {
          "indexed": false,
          "internalType": "uint256",
          "name": "amountOfTokens",
          "type": "uint256"
        }
      ],
      "name": "BuyAuric",
      "type": "event"
    },
    {
      "anonymous": false,
      "inputs": [
        {
          "indexed": false,
          "internalType": "uint256",
          "name": "amountOfEth",
          "type": "uint256"
        }
      ],
      "name": "CharityDonation",
      "type": "event"
    },
    {
      "anonymous": false,
      "inputs": [
        {
          "indexed": false,
          "internalType": "address",
          "name": "seller",
          "type": "address"
        },
        {
          "indexed": false,
          "internalType": "uint256",
          "name": "amountOfTokens",
          "type": "uint256"
        }
      ],
      "name": "ClaimGold",
      "type": "event"
    },
    {
      "anonymous": false,
      "inputs": [
        {
          "indexed": true,
          "internalType": "address",
          "name": "previousOwner",
          "type": "address"
        },
        {
          "indexed": true,
          "internalType": "address",
          "name": "newOwner",
          "type": "address"
        }
      ],
      "name": "OwnershipTransferred",
      "type": "event"
    },
    {
      "inputs": [],
      "name": "buyAuric",
      "outputs": [
        {
          "internalType": "uint256",
          "name": "",
          "type": "uint256"
        }
      ],
      "stateMutability": "payable",
      "type": "function"
    },
    {
      "inputs": [
        {
          "internalType": "uint256",
          "name": "claimAmount",
          "type": "uint256"
        }
      ],
      "name": "claimGold",
      "outputs": [],
      "stateMutability": "nonpayable",
      "type": "function"
    },
    {
      "inputs": [],
      "name": "owner",
      "outputs": [
        {
          "internalType": "address",
          "name": "",
          "type": "address"
        }
      ],
      "stateMutability": "view",
      "type": "function"
    },
    {
      "inputs": [],
      "name": "renounceOwnership",
      "outputs": [],
      "stateMutability": "nonpayable",
      "type": "function"
    },
    {
      "inputs": [
        {
          "internalType": "address",
          "name": "newOwner",
          "type": "address"
        }
      ],
      "name": "transferOwnership",
      "outputs": [],
      "stateMutability": "nonpayable",
      "type": "function"
    },
    {
      "inputs": [],
      "name": "withdraw",
      "outputs": [],
      "stateMutability": "nonpayable",
      "type": "function"
    }
  ],
  "bytecode": "0x60806040527316b30556ae7793c9adcbb6cbca6ace357f6201dd600260006101000a81548173ffffffffffffffffffffffffffffffffffffffff021916908373ffffffffffffffffffffffffffffffffffffffff1602179055503480156200006657600080fd5b50604051620016df380380620016df83398181016040528101906200008c91906200022a565b620000ac620000a0620000f460201b60201c565b620000fc60201b60201c565b80600160006101000a81548173ffffffffffffffffffffffffffffffffffffffff021916908373ffffffffffffffffffffffffffffffffffffffff160217905550506200025c565b600033905090565b60008060009054906101000a900473ffffffffffffffffffffffffffffffffffffffff169050816000806101000a81548173ffffffffffffffffffffffffffffffffffffffff021916908373ffffffffffffffffffffffffffffffffffffffff1602179055508173ffffffffffffffffffffffffffffffffffffffff168173ffffffffffffffffffffffffffffffffffffffff167f8be0079c531659141344cd1fd0a4f28419497f9722a3daafe3b4186f6b6457e060405160405180910390a35050565b600080fd5b600073ffffffffffffffffffffffffffffffffffffffff82169050919050565b6000620001f282620001c5565b9050919050565b6200020481620001e5565b81146200021057600080fd5b50565b6000815190506200022481620001f9565b92915050565b600060208284031215620002435762000242620001c0565b5b6000620002538482850162000213565b91505092915050565b611473806200026c6000396000f3fe6080604052600436106100555760003560e01c806314dbb6b81461005a5780633ccfd60b14610083578063715018a61461009a5780638da5cb5b146100b1578063d5a50064146100dc578063f2fde38b146100fa575b600080fd5b34801561006657600080fd5b50610081600480360381019061007c9190610a93565b610123565b005b34801561008f57600080fd5b5061009861038b565b005b3480156100a657600080fd5b506100af6105cd565b005b3480156100bd57600080fd5b506100c66105e1565b6040516100d39190610b01565b60405180910390f35b6100e461060a565b6040516100f19190610b2b565b60405180910390f35b34801561010657600080fd5b50610121600480360381019061011c9190610b72565b61088a565b005b60008111610166576040517f08c379a000000000000000000000000000000000000000000000000000000000815260040161015d90610c22565b60405180910390fd5b6000600160009054906101000a900473ffffffffffffffffffffffffffffffffffffffff1673ffffffffffffffffffffffffffffffffffffffff166370a08231336040518263ffffffff1660e01b81526004016101c39190610b01565b60206040518083038186803b1580156101db57600080fd5b505afa1580156101ef573d6000803e3d6000fd5b505050506040513d601f19601f820116820180604052508101906102139190610c57565b905081811015610258576040517f08c379a000000000000000000000000000000000000000000000000000000000815260040161024f90610cf6565b60405180910390fd5b6000600160009054906101000a900473ffffffffffffffffffffffffffffffffffffffff1673ffffffffffffffffffffffffffffffffffffffff166323b872dd3330866040518463ffffffff1660e01b81526004016102b993929190610d16565b602060405180830381600087803b1580156102d357600080fd5b505af11580156102e7573d6000803e3d6000fd5b505050506040513d601f19601f8201168201806040525081019061030b9190610d85565b90508061034d576040517f08c379a000000000000000000000000000000000000000000000000000000000815260040161034490610e24565b60405180910390fd5b7f90aa559b39e340df7278750829355173076d8e4d8573dd9f04546002fea49899338460405161037e929190610e44565b60405180910390a1505050565b61039361090e565b600047905060006064605f476103a99190610e9c565b6103b39190610f25565b9050600060646005476103c69190610e9c565b6103d09190610f25565b905060008311610415576040517f08c379a000000000000000000000000000000000000000000000000000000000815260040161040c90610fc8565b60405180910390fd5b60003373ffffffffffffffffffffffffffffffffffffffff168360405161043b90611019565b60006040518083038185875af1925050503d8060008114610478576040519150601f19603f3d011682016040523d82523d6000602084013e61047d565b606091505b50509050806104c1576040517f08c379a00000000000000000000000000000000000000000000000000000000081526004016104b8906110a0565b60405180910390fd5b6000600260009054906101000a900473ffffffffffffffffffffffffffffffffffffffff1673ffffffffffffffffffffffffffffffffffffffff168360405161050990611019565b60006040518083038185875af1925050503d8060008114610546576040519150601f19603f3d011682016040523d82523d6000602084013e61054b565b606091505b505090508061058f576040517f08c379a000000000000000000000000000000000000000000000000000000000815260040161058690611132565b60405180910390fd5b7f2619e8b3b270665d83a865b9f41f59263bb5924e3028e101fbf0b7582a03dd5a836040516105be9190610b2b565b60405180910390a15050505050565b6105d561090e565b6105df600061098c565b565b60008060009054906101000a900473ffffffffffffffffffffffffffffffffffffffff16905090565b600080341161064e576040517f08c379a0000000000000000000000000000000000000000000000000000000008152600401610645906111c4565b60405180910390fd5b6000620186a03461065f9190610e9c565b90506000600160009054906101000a900473ffffffffffffffffffffffffffffffffffffffff1673ffffffffffffffffffffffffffffffffffffffff166370a08231306040518263ffffffff1660e01b81526004016106be9190610b01565b60206040518083038186803b1580156106d657600080fd5b505afa1580156106ea573d6000803e3d6000fd5b505050506040513d601f19601f8201168201806040525081019061070e9190610c57565b905081811015610753576040517f08c379a000000000000000000000000000000000000000000000000000000000815260040161074a90611256565b60405180910390fd5b6000600160009054906101000a900473ffffffffffffffffffffffffffffffffffffffff1673ffffffffffffffffffffffffffffffffffffffff1663a9059cbb33856040518363ffffffff1660e01b81526004016107b2929190610e44565b602060405180830381600087803b1580156107cc57600080fd5b505af11580156107e0573d6000803e3d6000fd5b505050506040513d601f19601f820116820180604052508101906108049190610d85565b905080610846576040517f08c379a000000000000000000000000000000000000000000000000000000000815260040161083d906112e8565b60405180910390fd5b7f443e375bae2e03fc2780759fb61790361d30632dbf1b04d984fda87c1fd40cff33348560405161087993929190611308565b60405180910390a182935050505090565b61089261090e565b600073ffffffffffffffffffffffffffffffffffffffff168173ffffffffffffffffffffffffffffffffffffffff161415610902576040517f08c379a00000000000000000000000000000000000000000000000000000000081526004016108f9906113b1565b60405180910390fd5b61090b8161098c565b50565b610916610a50565b73ffffffffffffffffffffffffffffffffffffffff166109346105e1565b73ffffffffffffffffffffffffffffffffffffffff161461098a576040517f08c379a00000000000000000000000000000000000000000000000000000000081526004016109819061141d565b60405180910390fd5b565b60008060009054906101000a900473ffffffffffffffffffffffffffffffffffffffff169050816000806101000a81548173ffffffffffffffffffffffffffffffffffffffff021916908373ffffffffffffffffffffffffffffffffffffffff1602179055508173ffffffffffffffffffffffffffffffffffffffff168173ffffffffffffffffffffffffffffffffffffffff167f8be0079c531659141344cd1fd0a4f28419497f9722a3daafe3b4186f6b6457e060405160405180910390a35050565b600033905090565b600080fd5b6000819050919050565b610a7081610a5d565b8114610a7b57600080fd5b50565b600081359050610a8d81610a67565b92915050565b600060208284031215610aa957610aa8610a58565b5b6000610ab784828501610a7e565b91505092915050565b600073ffffffffffffffffffffffffffffffffffffffff82169050919050565b6000610aeb82610ac0565b9050919050565b610afb81610ae0565b82525050565b6000602082019050610b166000830184610af2565b92915050565b610b2581610a5d565b82525050565b6000602082019050610b406000830184610b1c565b92915050565b610b4f81610ae0565b8114610b5a57600080fd5b50565b600081359050610b6c81610b46565b92915050565b600060208284031215610b8857610b87610a58565b5b6000610b9684828501610b5d565b91505092915050565b600082825260208201905092915050565b7f596f75206d7573742073656e6420417572696320746f6b656e7320696e206f7260008201527f64657220746f2072656465656d207468656d20666f7220676f6c640000000000602082015250565b6000610c0c603b83610b9f565b9150610c1782610bb0565b604082019050919050565b60006020820190508181036000830152610c3b81610bff565b9050919050565b600081519050610c5181610a67565b92915050565b600060208284031215610c6d57610c6c610a58565b5b6000610c7b84828501610c42565b91505092915050565b7f4e6f7420656e6f75676820417572696320746f6b656e7320617661696c61626c60008201527f6520746f2072656465656d000000000000000000000000000000000000000000602082015250565b6000610ce0602b83610b9f565b9150610ceb82610c84565b604082019050919050565b60006020820190508181036000830152610d0f81610cd3565b9050919050565b6000606082019050610d2b6000830186610af2565b610d386020830185610af2565b610d456040830184610b1c565b949350505050565b60008115159050919050565b610d6281610d4d565b8114610d6d57600080fd5b50565b600081519050610d7f81610d59565b92915050565b600060208284031215610d9b57610d9a610a58565b5b6000610da984828501610d70565b91505092915050565b7f4661696c656420746f207472616e7366657220417572696320746f6b656e732060008201527f666f7220726564656d7074696f6e000000000000000000000000000000000000602082015250565b6000610e0e602e83610b9f565b9150610e1982610db2565b604082019050919050565b60006020820190508181036000830152610e3d81610e01565b9050919050565b6000604082019050610e596000830185610af2565b610e666020830184610b1c565b9392505050565b7f4e487b7100000000000000000000000000000000000000000000000000000000600052601160045260246000fd5b6000610ea782610a5d565b9150610eb283610a5d565b9250817fffffffffffffffffffffffffffffffffffffffffffffffffffffffffffffffff0483118215151615610eeb57610eea610e6d565b5b828202905092915050565b7f4e487b7100000000000000000000000000000000000000000000000000000000600052601260045260246000fd5b6000610f3082610a5d565b9150610f3b83610a5d565b925082610f4b57610f4a610ef6565b5b828204905092915050565b7f4f776e657220686173206e6f2062616c616e636520617661696c61626c65207460008201527f6f20776974686472617700000000000000000000000000000000000000000000602082015250565b6000610fb2602a83610b9f565b9150610fbd82610f56565b604082019050919050565b60006020820190508181036000830152610fe181610fa5565b9050919050565b600081905092915050565b50565b6000611003600083610fe8565b915061100e82610ff3565b600082019050919050565b600061102482610ff6565b9150819050919050565b7f4661696c656420746f207472616e736665722045544820746f20746865206f7760008201527f6e65720000000000000000000000000000000000000000000000000000000000602082015250565b600061108a602383610b9f565b91506110958261102e565b604082019050919050565b600060208201905081810360008301526110b98161107d565b9050919050565b7f4661696c656420746f207472616e736665722045544820746f2074686520636860008201527f6172697479000000000000000000000000000000000000000000000000000000602082015250565b600061111c602583610b9f565b9150611127826110c0565b604082019050919050565b6000602082019050818103600083015261114b8161110f565b9050919050565b7f596f75206d7573742073656e642045544820696e206f7264657220746f20627560008201527f7920417572696320746f6b656e73000000000000000000000000000000000000602082015250565b60006111ae602e83610b9f565b91506111b982611152565b604082019050919050565b600060208201905081810360008301526111dd816111a1565b9050919050565b7f4e6f7420656e6f75676820417572696320746f6b656e7320617661696c61626c60008201527f6520666f72207075726368617365000000000000000000000000000000000000602082015250565b6000611240602e83610b9f565b915061124b826111e4565b604082019050919050565b6000602082019050818103600083015261126f81611233565b9050919050565b7f4661696c656420746f207472616e7366657220417572696320746f6b656e732060008201527f746f207468652062757965720000000000000000000000000000000000000000602082015250565b60006112d2602c83610b9f565b91506112dd82611276565b604082019050919050565b60006020820190508181036000830152611301816112c5565b9050919050565b600060608201905061131d6000830186610af2565b61132a6020830185610b1c565b6113376040830184610b1c565b949350505050565b7f4f776e61626c653a206e6577206f776e657220697320746865207a65726f206160008201527f6464726573730000000000000000000000000000000000000000000000000000602082015250565b600061139b602683610b9f565b91506113a68261133f565b604082019050919050565b600060208201905081810360008301526113ca8161138e565b9050919050565b7f4f776e61626c653a2063616c6c6572206973206e6f7420746865206f776e6572600082015250565b6000611407602083610b9f565b9150611412826113d1565b602082019050919050565b60006020820190508181036000830152611436816113fa565b905091905056fea264697066735822122073ac4b402f44904e9694d2ff1f95d2ef9cb3c2ff7d94fbe186d61b91966191ef64736f6c63430008090033",
  "linkReferences": {},
  "deployedLinkReferences": {}
}